:1000000002005C320000000000000032000000002E
:10001000000000320000000000000032000000007C
:10002000000000320000000000000032000000006C
:10003000000000320000000000000032000000005C
:10004000000000320000000000000032000000004C
:1000500078497902D8FED9FCD5E0F52278FFE4F69C
:10006000D8FD758122752000C284C283C282C281FC
:10007000C280D2B7752100C205A2A092044003023B
:1000800000877401020088E4C0E0A20592045003D6
:100090000200987401020099E4D0F055F0B4010216
:1000A000800302011BD205C2B785A0215321F0E5D0
:1000B00021B4000280030200BF758000020117E531
:1000C00021B4100280030200CEB284020117E521A0
:1000D000B4200280030200DDB283020117E521B4DF
:1000E000300280030200ECB282020117E521B44025
:1000F0000280030200FBB281020117E521B4500225
:10010000800302010AB280020117E521B4F00280E7
:100110000302011775801F74F41150A2A0920450BD
:1001200003020126C205A2A0B392B7020079C2AFB2
:1001300080FE000000000000000000000000000041
:00000001FF
