:1000000002012F320000000000000032000000005A
:10001000000000320000000000000032000000007C
:100020000000003200000000000000000000C39546
:10003000F02212002E6003500122E422C0E0741B63
:100040001470FDD0E000223098FDE599C298227B23
:100050000474FA11E8DBFADAF622C0E0740311E85E
:10006000D0E022D290C292A2E49294A2E59295A20C
:10007000E69296A2E79297D292C292A2E09294A2BE
:10008000E19295A2E29296A2E39297D292C2921244
:10009000003C12003C22C29080CBC290C29212005F
:1000A0005AC297C296D295D294D292C29212005A54
:1000B00012005AD292C29212005AD292C2921200E6
:1000C0005AC294D292C29212005A742812009674A4
:1000D0000E120096740612009622740112009612F7
:1000E000005A74801200962278C87902D8FED9FC92
:1000F000D5E0F52220D502E622E02220D502F62224
:10010000F02220D5020822A322114711FB3102DF81
:10011000F822BA0104797F8010BA020479BF8009FD
:10012000BA0304798F800279CFE925F0020096782E
:100130007FE4F6D8FD758126C28E759852758922A6
:10014000438780758DFAD28E75200012009A740F45
:100150001196752101752200752300752400710D1B
:10016000C2D578257F013109E525B401028003025B
:1001700001777401020178E4C0E0E525B402028051
:1001800003020189740102018AE4D0F045F0B40150
:10019000028003020306852521C2D578257F01311F
:1001A00009E525B408028003020209E521B4010231
:1001B00080030201C8E522B4000280030201C27577
:1001C0002201852224782216E521B402028003024E
:1001D00001E5E523B4000280030201DF75230185F8
:1001E0002324782316AA218524F0120112780BE823
:1001F0008360061200630880F60201FE2000AA2137
:100200008524F0120112020306E525B41B028003C7
:10021000020290E521B4010280030202507522011E
:10022000752401AA218524F0120112780BE883605D
:10023000061200630880F602024A202020202020B7
:10024000202020202020202020007522007524005E
:10025000E521B40202800302028D75230175240199
:10026000AA218524F0120112780BE883600612009F
:10027000630880F6020287202020202020202020F2
:100280002020202020200075230075240002030672
:1002900075F020E525113260030202A1740102020B
:1002A000A2E4C0E08525F0747E113260030202B53D
:1002B00074010202B6E4D0F055F0B40102800302EA
:1002C0000306E521B4010280030202DE0522E522D5
:1002D000B4110280030202DB752210852224E5217D
:1002E000B4020280030202FA0523E523B41102805E
:1002F000030202F7752310852324AA218524F01216
:100300000112E5251163020160C2AF80FE11DA78A7
:100310000BE88360061200630880F602032E54790E
:1003200070696E672057697468205553420074F4F1
:1003300011E811DA740D119622000000000000008F
:00000001FF
