:10000000020050320000000000000032000000003A
:10001000000000320000000000000032000000007C
:10002000000000320000000000000032000000006C
:10003000000000320000000000000032000000005C
:10004000000000320000000000000032000000004C
:1000500078FFE4F6D8FD758121752000C2B4C2B4E2
:10006000A2829204400302006E740102006FE4C099
:10007000E0A2A59204500302007F7401020080E414
:10008000D0F055F0B401028003020091D2B4020016
:10009000BFA2829204500302009F74010200A0E4F8
:1000A000C0E0A2A5920440030200B074010200B1B6
:1000B000E4D0F055F0B4010280030200BFC2B402E4
:1000C0000060C2AF80FE00000000000000000000E1
:00000001FF
