:1000000002005C320000000000000032000000002E
:10001000000000320000000000000032000000007C
:10002000000000320000000000000032000000006C
:10003000000000320000000000000032000000005C
:10004000000000320000000000000032000000004C
:1000500078497902D8FED9FCD5E0F52278FFE4F69C
:10006000D8FD758127752000D2A3C2A4C2A5C2A65F
:10007000C2A7D2B77522F47523017524F475250142
:10008000C2B7E5221150D2B730050530B612C2050D
:1000900020B60D741E12005020B605D2051201398B
:1000A00030060530B512C20620B50D741E12005080
:1000B00020B505D20612015230070530B412C2072E
:1000C00020B40D741E12005020B405D20712016B2B
:1000D00030080530B312C20820B30D741E12005050
:1000E00020B305D208120184300905309212C209EA
:1000F00020920D741E120050209205D20912019D0B
:10010000300A05309112C20A20910D741E1200505F
:10011000209105D20A1201B6300B05309012C20BA5
:1001200020900D741E120050209005D20B1201CFAA
:10013000D2A3020088C2AF80FEC2A4C2A5C2A6C2DA
:10014000A7C2A3C2B7E5221150D2A3D2B7E52411AA
:100150005022D2A4C2A5C2A6C2A7C2A3C2B7E5229A
:100160001150D2A3D2B7E524115022C2A4D2A5C205
:10017000A6C2A7C2A3C2B7E5221150D2A3D2B7E547
:1001800024115022D2A4D2A5C2A6C2A7C2A3C2B72C
:10019000E5221150D2A3D2B7E524115022C2A4C245
:1001A000A5D2A6C2A7C2A3C2B7E5221150D2A3D23C
:1001B000B7E524115022D2A4C2A5D2A6C2A7C2A3D9
:1001C000C2B7E5221150D2A3D2B7E524115022D2F2
:1001D000A4D2A5D2A6D2A7C2A3C2B7E5221150D2FB
:1001E000A3D2B7E524115022000000000000000057
:00000001FF
