:100000000201273200000000000000320000000062
:10001000000000320000000000000032000000007C
:100020000000003200000000000000000000C39546
:10003000F02212002E6003500122E422C0E0741B63
:100040001470FDD0E000223098FDE599C29822742A
:10005000C8115B115BD5E0F9D8F522C0E074191125
:100060003C1470FBD0E022D2A3C2B6A2E49294A2C8
:10007000E59295A2E69296A2E79297D2B6C2B6A270
:10008000E09294A2E19295A2E29296A2E39297D294
:10009000B6C2B612003C12003C22C2A380CBC2A35F
:1000A000C2B612005BC297C296D295D294D2B6C2A3
:1000B000B612005B12005BD2B6C2B612005BD2B6BB
:1000C000C2B612005BC294D2B6C2B612005B7428EC
:1000D00012009A740E12009A740612009A22740189
:1000E00012009A12005B748012009A2220D502E658
:1000F00022E02220D502F622F02220D5020822A3F7
:1001000022114711F311FADFF822BA0104797F8036
:1001100010BA020479BF8009BA0304798F8002798A
:10012000CFE925F002009A787FE4F6D8FD758126A4
:10013000C28E759852758922758DFDD28E752000FC
:1001400012009E740C119A11DE7521017522007542
:1001500023007524007104C2D578257F013101E5A3
:1001600025B40102800302016E740102016FE4C034
:10017000E0E525B4020280030201807401020181DE
:10018000E4D0F045F0B4010280030202FD85252190
:10019000C2D578257F013101E525B408028003022C
:1001A0000200E521B4010280030201BFE522B40090
:1001B0000280030201B9752201852224782216E506
:1001C00021B4020280030201DCE523B400028003B3
:1001D0000201D6752301852324782316AA218524BC
:1001E000F012010A780BE88360061200670880F6B7
:1001F0000201F52000AA218524F012010A0202FD65
:10020000E525B41B028003020287E521B4010280C8
:1002100003020247752201752401AA218524F012E8
:10022000010A780BE88360061200670880F6020274
:10023000412020202020202020202020202020209D
:1002400000752200752400E521B402028003020239
:1002500084752301752401AA218524F012010A78EE
:100260000BE88360061200670880F602027E2020F9
:100270002020202020202020202020202000752346
:10028000007524000202FD75F020E525113260039F
:100290000202987401020299E4C0E08525F0747EA0
:1002A000113260030202AC74010202ADE4D0F055D9
:1002B000F0B4010280030202FDE521B401028003D3
:1002C0000202D50522E522B4110280030202D27592
:1002D0002210852224E521B4020280030202F105E6
:1002E00023E523B4110280030202EE752310852357
:1002F00024AA218524F012010AE52511670201577D
:10030000C2AF80FE11DE780BE8836006120067083A
:1003100080F6020325547970696E67205769746806
:1003200020555342007801114F11DE740E119A22AC
:00000001FF
