:10000000758920758DFD759850D28E7580007C00A5
:100010003098FDC298E599B40D44BC0108898079F7
:10002000007C0080EBBC0214E975F00AA4F97400AE
:10003000292AF58079007A007C0080D4BC031DE970
:1000400075F064A4F9EA75F00AA4FA7400292A2B61
:10005000F58079007A007B007C0080B480B2B430F7
:100060000474008042B431047401803BB4320474DF
:10007000028034B433047403802DB43404740480D7
:1000800026B435047405801FB4360474068018B491
:10009000370474078011B438047408800AB4390432
:1000A00074098003020010BC0005F90C020010BCAA
:1000B0000105FA0C020010BC0205FB0C0200100244
:0200C00000102E
:00000001FF
