:100000000202C032000000000000003200000000C8
:10001000000000320000000000000032000000007C
:10002000000000320000000000000032000000006C
:10003000000000320000000000000032000000005C
:10004000000000320000000000000032000000004C
:100050001EBEFF011FEF4E22AE02E6F70809DEFAD0
:1000600022C0E0741B1470FDD0E0002274C8117827
:100070001178D5E0F9D8F522C0E074191161147037
:10008000FBD0E022D2A7C2A5A2E492A4A2E592A34B
:10009000A2E692A2A2E792A1D2A5C2A5A2E092A452
:1000A000A2E192A3A2E292A2A2E392A1D2A5C2A54A
:1000B00012006112006122C2A780CBC2A7C2A512A2
:1000C0000078C2A1C2A2D2A3D2A4D2A5C2A5120016
:1000D00078120078D2A5C2A5120078D2A5C2A512C6
:1000E0000078C2A4D2A5C2A512007874281200B765
:1000F000740E1200B774061200B72274011200B712
:1001000012007874801200B7220022D2B53109D2D1
:10011000B631097F0AD330B50C30B609DFF8C2B664
:100120003109C2B5C3920422C2B63109D2B5310930
:10013000D2B62292B63109500C7F0A20B607DFFBF7
:10014000D2B5D38013D2B531097F0A20B507DFFBC2
:10015000D2B6D38003C2B5C322D2B63109D2B531EB
:10016000097F0A20B505DFFBD38007A2B692D5C26E
:10017000B5C3227E08333133400CDEF931594006D5
:10018000A2D55002312892042233FD7E0831594015
:100190000CA2D533DEF7CD13CD3133D2B692042283
:1001A000F874AD04000000000000000070F500D8F5
:1001B000F022AE02760008DEFB22780C31B220017C
:1001C00011C2D574082A14F8E630E706B2D57808CB
:1001D000513520010F74102A14F8E630E706B2D525
:1001E000781051357810790875F008EAA4FBE626F6
:1001F000F6C0D0BA0104D0D0800BD0D0AE021E0819
:10020000E633F6DEFA780CAE02E633F608DEFAAE36
:1002100002780CE6970908DEFA197810401279087E
:10022000C3780CAE02E697F60908DEF978101906D5
:100230007908DBBA22AE02D3E6F43400F608DEF821
:1002400022C00179101158D001C00174102A14F88D
:10025000E6C0E0780831B27808760AE9240FF9E4BC
:10026000F719C00131BA780CD001E62430F77810C4
:10027000AE02E44608DEFC70E8D0E020010730E77B
:1002800004742D19F7A801D0017A10518E22E6F7D7
:1002900060040809DAF8E4F722E660061200840830
:1002A00080F722BA0104797F8010BA020479BF80F6
:1002B00009BA0304798F800279CFE925F00200B7EB
:1002C00078FFE4F6D8FD7581377520001200BB7405
:1002D0000C11B711FBC290753200753300753400F4
:1002E000753500753646C205A2B792045003020365
:1002F00000741E31A0A2B792045003020300D2057D
:100300007EC87F007AC8120050A802D290D8FEC2E0
:1003100090A802D8FE70EF915B714930060530B7A6
:1003200012C20620B70D741E1201A020B705D20616
:100330001203AFA2059204400302034271AF74F4AA
:1003400031A002031BC2AF80FE797F75F00112025B
:10035000BA780BE88360061200840880F602036B0B
:10036000556C747261736F6E69630079BF75F001CB
:100370001202BA780BE88360061200840880F60245
:10038000038F3230434D202D20363030434D0078DE
:1003900002116C11FB780BE8836006120084088060
:1003A000F60203AE5072657373204B65790022A28A
:1003B00005920450030203CF7EC87F007AC8120062
:1003C00050A802D290D8FEC290A802D8FE70EF3199
:1003D0000B74E03173E43173745131733128E536B5
:1003E00031A0310B74E03173740231733128E5367A
:1003F00031A0310B74E13173C33189F5F085F032EE
:10040000D33189F5F085F0333128E53631A0E53375
:10041000F510E532F511851034851135C290912122
:100420002211FB780BE88360061200840880F60234
:10043000043B4C656E7467683D200078347A02791D
:1004400021514178215199780BE88360061200848C
:100450000880F602045A20434D0022C2B3D2B420D1
:10046000B4FD746431A02200000000000000000010
:00000001FF
