:1000000002064A020000000000000002000000009A
:1000100000000002000000000000000200000000DC
:06002000000000020000D8
:060026007F18DFFE00223E
:09002C007E0B7FB2DFFEDEFC2238
:020035000022A7
:10003700E5135480F8630080E86004780080027854
:1000470001E81392A1E5135440F8630040E8600407
:10005700780080027801E81392A2E5135420F86330
:100067000020E86004780080027801E81392A3E595
:10007700135410F8630010E86004780080027801D8
:10008700E81392A4E5096004780080027801E81378
:1000970092A7D2A51135C2A5E5135408F863000845
:1000A700E86004780080027801E81392A1E5135410
:1000B70004F8630004E86004780080027801E8131C
:1000C70092A2E5135402F8630002E8600478008006
:1000D700027801E81392A3E5135401F8630001E8DD
:1000E7006004780080027801E81392A4E5096004AF
:1000F700780080027801E81392A7D2A51135C2A52E
:0B010700E5096004112C800211262283
:10011200BD000BB90029E88CF084F8ACF022E4CDE4
:10012200FF75F008E828F8E933F9ED33FDE99CEDB5
:100132009F4005FDE99CF908D5F0E9E4C9FC22ECF1
:10014200FFF5F0E98420D21CF9ACF075F008E8283C
:10015200F8EC33FC40079F5006D5F0F222C39FFC17
:0501620008D5F0EA22BF
:0C0167007509008512131137750901227B
:10017300C2B611351135D2B5C3E50892E1F50820B1
:10018300B509E50830E102800280F411351135111B
:100193003511351135113511351135D2B6113511EA
:0201A300352203
:1001A5008019750C80802E750CC08029750C948083
:1001B50024750CD4801F750C80801AE50C640160D1
:1001C500E1E50C640260E0E50C640360DFE50C64C6
:1001D5000460DE80E1C3E50D9401F8E50C28F8859F
:1001E500000C7509018500131137750900850E137B
:0601F5001137750901221B
:1001FB008019750C80802E750CC08029750C94802D
:10020B0024750CD4801F750C80801AE50C6401607A
:10021B00E1E50C640260E0E50C640360DFE50C646F
:10022B000460DE80E1C3E50D9401F8E50C28F88548
:10023B00000C8500131137750900750F00E50E25AD
:10024B000FF8E6600DE50E250FF886123167050FE6
:06025B0080EB7509012291
:10026100750D01750E00750F80751000E50F4510B5
:10027100604E1135113511351135C2B511351135B4
:10028100E50C550FF8E45510F9E8496004D2B68041
:1002910002C2B611351135D2B5C3E50892E1F508B0
:1002A10020B509E50830E102800280F47801E5100B
:1002B100088007C313C50F13C50FD8F7F51080AC1D
:1002C100750D00750E0011351135C2B51135113599
:1002D100D2B61135113511351135D2B5C3E50892B4
:1002E100E1F50820B509E50830E102800280F475E6
:1002F1000D00750E001135113530B606430D014361
:100301000E001135113511351135113511351135F4
:1003110011351135113511351135113511351135AC
:0B0321001135C2B5C2B6A80DA90E220E
:10032C00750D00E50C250DF8E6600DE50C250DF8B6
:09033C0086123167050D80EB22E9
:10034500750E00750F00751080751100E5104511CB
:10035500604411351135D2B611351135D2B5C3E525
:100365000892E1F50820B509E50830E10280028030
:10037500F430B608E510420EE511420F113511357E
:10038500C2B57801E511088007C313C51013C51060
:10039500D8F7F51180B6D2B611351135E50C450DF6
:1003A5006002C2B611351135D2B5C3E50892E1F543
:1003B5000820B509E50830E102800280F411351105
:0E03C50035C2B511351135C2B6A80EA90F22EA
:1003D300C2D5ED30E709B2D5E4C39CFCE49DFDE949
:1003E30030E715B2D5E4C398F8E499F9120112C3C2
:1003F300E49CFCE49DFD800312011230D507C3E4A5
:0604030098F8E499F922CB
:060409007FF8DFFE002277
:10040F00D2B611351135D2B511351135C2B61135F8
:05041F001135C2B522F9
:10042400C2A5C2A7112C112C112CC2A1C2A2C2A315
:10043400C2A4D2A3D2A4D2A51135C2A5112CD2A58F
:100444001135C2A5112CD2A51135C2A5112CD2A3E8
:10045400C2A4D2A51135C2A5112CC2A1C2A2C2A3A5
:10046400D2A3C2A4D2A51135C2A5C2A3D2A1D2A53A
:100474001135C2A5112CC2A1D2A4D2A51135C2A591
:10048400C2A4D2A51135C2A5112CC2A4D2A511357E
:10049400C2A5D2A4D2A51135C2A5112CC2A4D2A53D
:1004A4001135C2A5D2A1D2A2D2A3D2A4D2A511350C
:0804B400C2A5112C75090122FB
:1004BC00D2B6D2B5C3E50892E1F50820B509E50836
:0804CC0030E102800280F422FD
:1004D400A2B7B3E433F8E50B6200E8601FD3E50A82
:1004E4009400400891099109150A80F1A2B7B3E478
:0F04F40033F8E50B6200E8600378FF22780022FE
:100503007590017D037E487FA3DFFEDEFCDDFA00EC
:0405130075900022BD
:10051700755E00755F00755A00755C00910F855B0D
:100527000C5161750C005161750C51516131737E2D
:10053700897F2EDFFEDEFC910F855B0C5161750C08
:1005470002516131737E897F2EDFFEDEFC910F85BC
:100557005D0C5161750C01750D00714585005A756B
:100567000C00750D00714585005C31737E897F2E07
:10057700DFFEDEFC855A5F755E00756000E55C2571
:090587005EF55EE4355FF55F22CC
:10059000750C01750D01750E3031FB750C01750D73
:1005A0000C750E3D31FB750C01750D097C647D00E9
:1005B000A85EA95F71D37C0A7D0071D3A804A90548
:1005C000743028F50E31A5750C01750D0A7C0A7D75
:1005D00000A85EA95F71D37C0A7D0071D3A804A92D
:1005E00005743028F50E31A5750C01750D0B7C0ACC
:1005F0007D00A85EA95F71D3A804A905743028F511
:090600000E31A5750C39712C2294
:100609007513011137750C01750D01750E4231FB1A
:10061900750C02750D01750E4D31FB7D107E337F12
:10062900FBDFFEDEFCDDFA007513011137750C01E5
:09063900750D01750E6031FB2204
:08064200E493F608A3D9F922A4
:10064A00758114120713912475130C113791BCC3C9
:10065A00E50892E0F508C3E50892E2F508750A0193
:10066A00750B0091D4E8601A7E3B7F5CDFFEDEFCEE
:10067A00750A01750B0091D4E86007D3E50892E288
:10068A00F508B103D109750A01750B0191D4E86027
:10069A0007D3E50892E0F508E50830E018750A0185
:1006AA00750B0091D4E8600DB103B117B190C3E5A1
:1006BA000892E0F508E50830E211B117B1907D041F
:0F06CA007ECD7FBDDFFEDEFCDDFA0080B980FE55
:0E0713007830793A7582D97583061206422233
:0906D9004C656E7467683D200059
:0406E200434D200064
:0506E60020434D20003F
:0B06EB00556C747261736F6E696300E0
:0D06F6003230434D202D20363030434D0072
:0107030000F5
:01070400E014
:0107050000F3
:01070600E111
:020707000000F0
:0A0709005072657373204B65790090
:00000001FF
