:100000000201343200000000000000320000000055
:10001000000000320000000000000032000000007C
:100020000000003200000000000000000000AE02EE
:10003000E6F70809DEFA22C2D57FFF8002D2D51288
:100040000086B4080612008E1880F420D505B4206E
:100050000280EC300213C0E0C39461400A941A504D
:1000600006D0E0545F8002D0E020030312008EB47B
:100070000D0B200305740A12008EE4F622DF030F35
:1000800080BDF60880B93098FDE599C29822309974
:10009000FDC299F59922C3AE02E637F70809DEF9E9
:1000A000227408C0F08502F0A4FFD0F0781011C4CB
:1000B000C3781011CC780811CC5006780C79101147
:1000C00096DFED22AE02760008DEFB22AE02E633BA
:1000D000F608DEFA22AE02D3E6F43400F608DEF8C3
:1000E00022E58104F5F02AF581C2D5781011C4A863
:1000F000F011C4E76031B42D04D2D580279430C00C
:10010000E0C0017810790C112E780811C4780876B7
:100110000A11A1D001A8F0D0E0F6C001A8F0791032
:100120001196D0010980CC30D504781011D5E5F0B6
:1001300014F58122787FE4F6D8FD758133C28E757F
:100140009852758922758DFDD28E75200078211107
:100150003779217A0111E179327810112E8532A098
:1001600002014DC2AF80FEC2AF80FE000000000061
:00000001FF
